{
  "contractName": "ERC20Basic",
  "abi": [
    {
      "inputs": [
        {
          "internalType": "uint256",
          "name": "initialSupply",
          "type": "uint256"
        }
      ],
      "stateMutability": "nonpayable",
      "type": "constructor"
    },
    {
      "anonymous": false,
      "inputs": [
        {
          "indexed": true,
          "internalType": "address",
          "name": "owner",
          "type": "address"
        },
        {
          "indexed": true,
          "internalType": "address",
          "name": "spender",
          "type": "address"
        },
        {
          "indexed": false,
          "internalType": "uint256",
          "name": "value",
          "type": "uint256"
        }
      ],
      "name": "Approval",
      "type": "event"
    },
    {
      "anonymous": false,
      "inputs": [
        {
          "indexed": true,
          "internalType": "address",
          "name": "from",
          "type": "address"
        },
        {
          "indexed": true,
          "internalType": "address",
          "name": "to",
          "type": "address"
        },
        {
          "indexed": false,
          "internalType": "uint256",
          "name": "value",
          "type": "uint256"
        }
      ],
      "name": "Transfer",
      "type": "event"
    },
    {
      "inputs": [],
      "name": "decimals",
      "outputs": [
        {
          "internalType": "uint8",
          "name": "",
          "type": "uint8"
        }
      ],
      "stateMutability": "view",
      "type": "function"
    },
    {
      "inputs": [],
      "name": "name",
      "outputs": [
        {
          "internalType": "string",
          "name": "",
          "type": "string"
        }
      ],
      "stateMutability": "view",
      "type": "function"
    },
    {
      "inputs": [],
      "name": "symbol",
      "outputs": [
        {
          "internalType": "string",
          "name": "",
          "type": "string"
        }
      ],
      "stateMutability": "view",
      "type": "function"
    },
    {
      "inputs": [],
      "name": "totalSupply",
      "outputs": [
        {
          "internalType": "uint256",
          "name": "",
          "type": "uint256"
        }
      ],
      "stateMutability": "view",
      "type": "function"
    },
    {
      "inputs": [
        {
          "internalType": "uint256",
          "name": "newTokensAmount",
          "type": "uint256"
        }
      ],
      "name": "increaseTotalSupply",
      "outputs": [],
      "stateMutability": "nonpayable",
      "type": "function"
    },
    {
      "inputs": [
        {
          "internalType": "address",
          "name": "tokenOwner",
          "type": "address"
        }
      ],
      "name": "balanceOf",
      "outputs": [
        {
          "internalType": "uint256",
          "name": "",
          "type": "uint256"
        }
      ],
      "stateMutability": "view",
      "type": "function"
    },
    {
      "inputs": [
        {
          "internalType": "address",
          "name": "owner",
          "type": "address"
        },
        {
          "internalType": "address",
          "name": "delegate",
          "type": "address"
        }
      ],
      "name": "allowance",
      "outputs": [
        {
          "internalType": "uint256",
          "name": "",
          "type": "uint256"
        }
      ],
      "stateMutability": "view",
      "type": "function"
    },
    {
      "inputs": [
        {
          "internalType": "address",
          "name": "recipient",
          "type": "address"
        },
        {
          "internalType": "uint256",
          "name": "numTokens",
          "type": "uint256"
        }
      ],
      "name": "transfer",
      "outputs": [
        {
          "internalType": "bool",
          "name": "",
          "type": "bool"
        }
      ],
      "stateMutability": "nonpayable",
      "type": "function"
    },
    {
      "inputs": [
        {
          "internalType": "address",
          "name": "emisor",
          "type": "address"
        },
        {
          "internalType": "address",
          "name": "recipient",
          "type": "address"
        },
        {
          "internalType": "uint256",
          "name": "numTokens",
          "type": "uint256"
        }
      ],
      "name": "transferLoteria",
      "outputs": [
        {
          "internalType": "bool",
          "name": "",
          "type": "bool"
        }
      ],
      "stateMutability": "nonpayable",
      "type": "function"
    },
    {
      "inputs": [
        {
          "internalType": "address",
          "name": "delegate",
          "type": "address"
        },
        {
          "internalType": "uint256",
          "name": "numTokens",
          "type": "uint256"
        }
      ],
      "name": "approve",
      "outputs": [
        {
          "internalType": "bool",
          "name": "",
          "type": "bool"
        }
      ],
      "stateMutability": "nonpayable",
      "type": "function"
    },
    {
      "inputs": [
        {
          "internalType": "address",
          "name": "owner",
          "type": "address"
        },
        {
          "internalType": "address",
          "name": "buyer",
          "type": "address"
        },
        {
          "internalType": "uint256",
          "name": "numTokens",
          "type": "uint256"
        }
      ],
      "name": "transferFrom",
      "outputs": [
        {
          "internalType": "bool",
          "name": "",
          "type": "bool"
        }
      ],
      "stateMutability": "nonpayable",
      "type": "function"
    }
  ],
  "bytecode": "0x608060405234801561001057600080fd5b50604051620013eb380380620013eb8339818101604052810190610034919061009b565b806002819055506002546000803373ffffffffffffffffffffffffffffffffffffffff1673ffffffffffffffffffffffffffffffffffffffff16815260200190815260200160002081905550506100e5565b600081519050610095816100ce565b92915050565b6000602082840312156100ad57600080fd5b60006100bb84828501610086565b91505092915050565b6000819050919050565b6100d7816100c4565b81146100e257600080fd5b50565b6112f680620000f56000396000f3fe608060405234801561001057600080fd5b50600436106100a95760003560e01c8063313ce56711610071578063313ce567146101665780635c79febb1461018457806370a08231146101b457806395d89b41146101e4578063a9059cbb14610202578063dd62ed3e14610232576100a9565b806306fdde03146100ae578063095ea7b3146100cc57806318160ddd146100fc5780631d43cc981461011a57806323b872dd14610136575b600080fd5b6100b6610262565b6040516100c39190611105565b60405180910390f35b6100e660048036038101906100e19190610ead565b61029b565b6040516100f391906110ea565b60405180910390f35b61010461040e565b60405161011191906111a7565b60405180910390f35b610134600480360381019061012f9190610ee9565b610418565b005b610150600480360381019061014b9190610e5e565b610477565b60405161015d91906110ea565b60405180910390f35b61016e61085e565b60405161017b91906111c2565b60405180910390f35b61019e60048036038101906101999190610e5e565b610863565b6040516101ab91906110ea565b60405180910390f35b6101ce60048036038101906101c99190610df9565b610a7c565b6040516101db91906111a7565b60405180910390f35b6101ec610ac4565b6040516101f99190611105565b60405180910390f35b61021c60048036038101906102179190610ead565b610afd565b60405161022991906110ea565b60405180910390f35b61024c60048036038101906102479190610e22565b610d15565b60405161025991906111a7565b60405180910390f35b6040518060400160405280601181526020017f4552433230426c6f636b636861696e415a00000000000000000000000000000081525081565b60008060003373ffffffffffffffffffffffffffffffffffffffff1673ffffffffffffffffffffffffffffffffffffffff1681526020019081526020016000205482111561031e576040517f08c379a000000000000000000000000000000000000000000000000000000000815260040161031590611127565b60405180910390fd5b81600160003373ffffffffffffffffffffffffffffffffffffffff1673ffffffffffffffffffffffffffffffffffffffff16815260200190815260200160002060008573ffffffffffffffffffffffffffffffffffffffff1673ffffffffffffffffffffffffffffffffffffffff168152602001908152602001600020819055508273ffffffffffffffffffffffffffffffffffffffff163373ffffffffffffffffffffffffffffffffffffffff167f8c5be1e5ebec7d5bd14f71427d1e84f3dd0314c0f7b2291e5b200ac8c7c3b925846040516103fc91906111a7565b60405180910390a36001905092915050565b6000600254905090565b80600260008282540192505081905550806000803373ffffffffffffffffffffffffffffffffffffffff1673ffffffffffffffffffffffffffffffffffffffff1681526020019081526020016000206000828254019250508190555050565b60008060008573ffffffffffffffffffffffffffffffffffffffff1673ffffffffffffffffffffffffffffffffffffffff168152602001908152602001600020548211156104fa576040517f08c379a00000000000000000000000000000000000000000000000000000000081526004016104f190611147565b60405180910390fd5b600160008573ffffffffffffffffffffffffffffffffffffffff1673ffffffffffffffffffffffffffffffffffffffff16815260200190815260200160002060003373ffffffffffffffffffffffffffffffffffffffff1673ffffffffffffffffffffffffffffffffffffffff168152602001908152602001600020548211156105b9576040517f08c379a00000000000000000000000000000000000000000000000000000000081526004016105b090611187565b60405180910390fd5b61060a826000808773ffffffffffffffffffffffffffffffffffffffff1673ffffffffffffffffffffffffffffffffffffffff16815260200190815260200160002054610d9c90919063ffffffff16565b6000808673ffffffffffffffffffffffffffffffffffffffff1673ffffffffffffffffffffffffffffffffffffffff168152602001908152602001600020819055506106db82600160008773ffffffffffffffffffffffffffffffffffffffff1673ffffffffffffffffffffffffffffffffffffffff16815260200190815260200160002060003373ffffffffffffffffffffffffffffffffffffffff1673ffffffffffffffffffffffffffffffffffffffff16815260200190815260200160002054610d9c90919063ffffffff16565b600160008673ffffffffffffffffffffffffffffffffffffffff1673ffffffffffffffffffffffffffffffffffffffff16815260200190815260200160002060003373ffffffffffffffffffffffffffffffffffffffff1673ffffffffffffffffffffffffffffffffffffffff168152602001908152602001600020819055506107ac826000808673ffffffffffffffffffffffffffffffffffffffff1673ffffffffffffffffffffffffffffffffffffffff16815260200190815260200160002054610db390919063ffffffff16565b6000808573ffffffffffffffffffffffffffffffffffffffff1673ffffffffffffffffffffffffffffffffffffffff168152602001908152602001600020819055508273ffffffffffffffffffffffffffffffffffffffff168473ffffffffffffffffffffffffffffffffffffffff167fddf252ad1be2c89b69c2b068fc378daa952ba7f163c4a11628f55a4df523b3ef8460405161084b91906111a7565b60405180910390a3600090509392505050565b600281565b60008060008573ffffffffffffffffffffffffffffffffffffffff1673ffffffffffffffffffffffffffffffffffffffff168152602001908152602001600020548211156108e6576040517f08c379a00000000000000000000000000000000000000000000000000000000081526004016108dd90611167565b60405180910390fd5b610937826000808773ffffffffffffffffffffffffffffffffffffffff1673ffffffffffffffffffffffffffffffffffffffff16815260200190815260200160002054610d9c90919063ffffffff16565b6000808673ffffffffffffffffffffffffffffffffffffffff1673ffffffffffffffffffffffffffffffffffffffff168152602001908152602001600020819055506109ca826000808673ffffffffffffffffffffffffffffffffffffffff1673ffffffffffffffffffffffffffffffffffffffff16815260200190815260200160002054610db390919063ffffffff16565b6000808573ffffffffffffffffffffffffffffffffffffffff1673ffffffffffffffffffffffffffffffffffffffff168152602001908152602001600020819055508273ffffffffffffffffffffffffffffffffffffffff168473ffffffffffffffffffffffffffffffffffffffff167fddf252ad1be2c89b69c2b068fc378daa952ba7f163c4a11628f55a4df523b3ef84604051610a6991906111a7565b60405180910390a3600190509392505050565b60008060008373ffffffffffffffffffffffffffffffffffffffff1673ffffffffffffffffffffffffffffffffffffffff168152602001908152602001600020549050919050565b6040518060400160405280600681526020017f455243323041000000000000000000000000000000000000000000000000000081525081565b60008060003373ffffffffffffffffffffffffffffffffffffffff1673ffffffffffffffffffffffffffffffffffffffff16815260200190815260200160002054821115610b80576040517f08c379a0000000000000000000000000000000000000000000000000000000008152600401610b7790611167565b60405180910390fd5b610bd1826000803373ffffffffffffffffffffffffffffffffffffffff1673ffffffffffffffffffffffffffffffffffffffff16815260200190815260200160002054610d9c90919063ffffffff16565b6000803373ffffffffffffffffffffffffffffffffffffffff1673ffffffffffffffffffffffffffffffffffffffff16815260200190815260200160002081905550610c64826000808673ffffffffffffffffffffffffffffffffffffffff1673ffffffffffffffffffffffffffffffffffffffff16815260200190815260200160002054610db390919063ffffffff16565b6000808573ffffffffffffffffffffffffffffffffffffffff1673ffffffffffffffffffffffffffffffffffffffff168152602001908152602001600020819055508273ffffffffffffffffffffffffffffffffffffffff163373ffffffffffffffffffffffffffffffffffffffff167fddf252ad1be2c89b69c2b068fc378daa952ba7f163c4a11628f55a4df523b3ef84604051610d0391906111a7565b60405180910390a36001905092915050565b6000600160008473ffffffffffffffffffffffffffffffffffffffff1673ffffffffffffffffffffffffffffffffffffffff16815260200190815260200160002060008373ffffffffffffffffffffffffffffffffffffffff1673ffffffffffffffffffffffffffffffffffffffff16815260200190815260200160002054905092915050565b600082821115610da857fe5b818303905092915050565b600080828401905083811015610dc557fe5b8091505092915050565b600081359050610dde81611292565b92915050565b600081359050610df3816112a9565b92915050565b600060208284031215610e0b57600080fd5b6000610e1984828501610dcf565b91505092915050565b60008060408385031215610e3557600080fd5b6000610e4385828601610dcf565b9250506020610e5485828601610dcf565b9150509250929050565b600080600060608486031215610e7357600080fd5b6000610e8186828701610dcf565b9350506020610e9286828701610dcf565b9250506040610ea386828701610de4565b9150509250925092565b60008060408385031215610ec057600080fd5b6000610ece85828601610dcf565b9250506020610edf85828601610de4565b9150509250929050565b600060208284031215610efb57600080fd5b6000610f0984828501610de4565b91505092915050565b610f1b8161120b565b82525050565b6000610f2c826111dd565b610f3681856111e8565b9350610f4681856020860161124e565b610f4f81611281565b840191505092915050565b6000610f676033836111e8565b91507f4e6f20646973706f6e6520646520737566696369656e74657320746f6b656e7360008301527f2070617261206573746520747261737061736f000000000000000000000000006020830152604082019050919050565b6000610fcd6024836111e8565b91507f456c206f776e6572206e6f207469656e6520746f6b656e73207375666963696560008301527f6e746573000000000000000000000000000000000000000000000000000000006020830152604082019050919050565b60006110336020836111e8565b91507f4e6f20646973706f6e6520646520746f6b656e7320737566696369656e7465736000830152602082019050919050565b60006110736027836111e8565b91507f4e6f207469656e6520657365206e756d65726f20646520746f6b656e7320646560008301527f6c656761646f73000000000000000000000000000000000000000000000000006020830152604082019050919050565b6110d581611237565b82525050565b6110e481611241565b82525050565b60006020820190506110ff6000830184610f12565b92915050565b6000602082019050818103600083015261111f8184610f21565b905092915050565b6000602082019050818103600083015261114081610f5a565b9050919050565b6000602082019050818103600083015261116081610fc0565b9050919050565b6000602082019050818103600083015261118081611026565b9050919050565b600060208201905081810360008301526111a081611066565b9050919050565b60006020820190506111bc60008301846110cc565b92915050565b60006020820190506111d760008301846110db565b92915050565b600081519050919050565b600082825260208201905092915050565b600061120482611217565b9050919050565b60008115159050919050565b600073ffffffffffffffffffffffffffffffffffffffff82169050919050565b6000819050919050565b600060ff82169050919050565b60005b8381101561126c578082015181840152602081019050611251565b8381111561127b576000848401525b50505050565b6000601f19601f8301169050919050565b61129b816111f9565b81146112a657600080fd5b50565b6112b281611237565b81146112bd57600080fd5b5056fea2646970667358221220f847f335e48d0a983bdbf58bd00340263f730d2ab95bd514ee3db459d07caf4664736f6c63430006080033",
  "immutableReferences": {},
  "source": "// SPDX-License-Identifier: MIT\r\npragma solidity >=0.4.4 <0.8.0;\r\npragma experimental ABIEncoderV2;\r\nimport \"./SafeMath.sol\";\r\n\r\n// Juan Gabriel  -->  0x5B38Da6a701c568545dCfcB03FcB875f56beddC4\r\n// Joan Amengual --> 0xAb8483F64d9C6d1EcF9b849Ae677dD3315835cb2\r\n// María Santos  --> 0x4B20993Bc481177ec7E8f571ceCaE8A9e22C02db\r\n\r\n// interface de nuestro token ERC20\r\ninterface IERC20 {\r\n    // devuelve la cantidad de tokens en existencia\r\n   function totalSupply() external view returns (uint256);\r\n   \r\n   // devuelve la cantidad de tokens para una dirección indicada por parámetro\r\n   function balanceOf(address account) external view returns (uint256);\r\n\r\n   // devuelve el número de tokens que el spender podrá gastar en nombre del propietario (owner)\r\n   function allowance(address owner, address spender) external view returns (uint256);\r\n\r\n   // devuelve un valor booleano resultado de la operación indicada\r\n   function transfer(address recipient, uint256 amount) external returns(bool);   \r\n\r\n   // devuelve un valor booleano resultado de la operación indicada\r\n   function transferLoteria(address emisor, address recipient, uint256 amount) external returns(bool);   \r\n\r\n   // Devuelve un valor booleano con el resultado de la operación de gasto\r\n   function approve(address spender, uint256 amount) external returns(bool);\r\n\r\n   // Devuelve un valor booleano con el resultado de la operación de paso de una cantidad de tokens usando el método allowance\r\n   function transferFrom(address sender, address recipient, uint256 amount) external returns(bool);\r\n\r\n   // evento que se debe emitir cuando una cantidad de tokens pasa de un origen a un destino\r\n   event Transfer(address indexed from, address indexed to, uint256 value);\r\n\r\n   // evento que se debe emitir cuando se establece una asignación con el método allowance\r\n   event Approval(address indexed owner, address indexed spender, uint256 value);\r\n}\r\n\r\n// Implementación de las funciones del token IERC20\r\ncontract ERC20Basic is IERC20 {\r\n\r\n   string public constant name = \"ERC20BlockchainAZ\";\r\n   string public constant symbol = \"ERC20A\";\r\n   uint8 public constant decimals = 2;   \r\n\r\n   //event Transfer(address indexed from, address indexed to, uint256 tokens);   \r\n   // event Approval(address indexed owner, address indexed spender, uint256 tokens);\r\n\r\n   using SafeMath for uint256;\r\n\r\n   mapping (address => uint) balances;\r\n   mapping (address => mapping(address => uint)) allowed;\r\n   uint256 totalSupply_;\r\n\r\n   constructor(uint256 initialSupply) public {\r\n       totalSupply_ = initialSupply;\r\n       balances[msg.sender] = totalSupply_;       \r\n   }\r\n  \r\n   function totalSupply() public override view returns (uint256) {\r\n       return totalSupply_;\r\n   }\r\n\r\n   function increaseTotalSupply(uint newTokensAmount) public {      \r\n      totalSupply_ += newTokensAmount;\r\n      balances[msg.sender] += newTokensAmount;\r\n   }\r\n\r\n   function balanceOf(address tokenOwner) public override view returns (uint256) {\r\n       return balances[tokenOwner];\r\n   }\r\n\r\n   function allowance(address owner, address delegate) public override view returns (uint256) {\r\n       return allowed[owner][delegate];\r\n   }\r\n\r\n   function transfer(address recipient, uint256 numTokens) public override returns(bool) {\r\n       require(numTokens <= balances[msg.sender], \"No dispone de tokens suficientes\");\r\n       balances[msg.sender] = balances[msg.sender].sub(numTokens);\r\n       balances[recipient] = balances[recipient].add(numTokens);\r\n       emit Transfer(msg.sender, recipient, numTokens);\r\n       return true;\r\n   }\r\n\r\n   function transferLoteria(address emisor, address recipient, uint256 numTokens) public override returns(bool) {\r\n       require(numTokens <= balances[emisor], \"No dispone de tokens suficientes\");\r\n       balances[emisor] = balances[emisor].sub(numTokens);\r\n       balances[recipient] = balances[recipient].add(numTokens);\r\n       emit Transfer(emisor, recipient, numTokens);\r\n       return true;\r\n   }\r\n\r\n   function approve(address delegate, uint256 numTokens) public override returns(bool) {\r\n       require(numTokens <= balances[msg.sender], \"No dispone de suficientes tokens para este traspaso\");\r\n       allowed[msg.sender][delegate] = numTokens;\r\n       emit Approval(msg.sender, delegate, numTokens);\r\n       return true;\r\n   }\r\n\r\n   function transferFrom(address owner, address buyer, uint256 numTokens) public override returns(bool) {\r\n       require(numTokens <= balances[owner], \"El owner no tiene tokens suficientes\");\r\n       require(numTokens <= allowed[owner][msg.sender], \"No tiene ese numero de tokens delegados\");  \r\n       balances[owner] = balances[owner].sub(numTokens);\r\n       allowed[owner][msg.sender] = allowed[owner][msg.sender].sub(numTokens);\r\n       balances[buyer] = balances[buyer].add(numTokens);\r\n       emit Transfer(owner, buyer, numTokens);\r\n       return false;\r\n   }\r\n}",
  "sourcePath": "C:\\Users\\arpaf\\OneDrive\\Escritorio\\proyectos_blockchain\\loteria-angulartruffledapp\\blockchain\\contracts\\ERC20.sol",
  "compiler": {
    "name": "solc",
    "version": "0.6.8+commit.0bbfe453.Emscripten.clang"
  },
  "schemaVersion": "3.4.3",
  "updatedAt": "2022-06-03T20:28:02.921Z",
  "devdoc": {
    "methods": {}
  },
  "userdoc": {
    "methods": {}
  }
}